{"abi":[{"type":"function","name":"DEFAULT_MAX_TICKS","inputs":[],"outputs":[{"name":"","type":"uint64","internalType":"uint64"}],"stateMutability":"view"},{"type":"function","name":"NO_CONTRADICTION_CELL","inputs":[],"outputs":[{"name":"","type":"uint32","internalType":"uint32"}],"stateMutability":"view"},{"type":"function","name":"PHASE_FRAME_RENDER","inputs":[],"outputs":[{"name":"","type":"uint8","internalType":"uint8"}],"stateMutability":"view"},{"type":"function","name":"PHASE_PALETTE","inputs":[],"outputs":[{"name":"","type":"uint8","internalType":"uint8"}],"stateMutability":"view"},{"type":"function","name":"PHASE_PATTERNS","inputs":[],"outputs":[{"name":"","type":"uint8","internalType":"uint8"}],"stateMutability":"view"},{"type":"function","name":"PHASE_PROPAGATOR","inputs":[],"outputs":[{"name":"","type":"uint8","internalType":"uint8"}],"stateMutability":"view"},{"type":"function","name":"PHASE_SEED","inputs":[],"outputs":[{"name":"","type":"uint8","internalType":"uint8"}],"stateMutability":"view"},{"type":"function","name":"PHASE_SVG_FINALIZE","inputs":[],"outputs":[{"name":"","type":"uint8","internalType":"uint8"}],"stateMutability":"view"},{"type":"function","name":"PHASE_TITLE_RENDER","inputs":[],"outputs":[{"name":"","type":"uint8","internalType":"uint8"}],"stateMutability":"view"},{"type":"function","name":"PHASE_WFC_INIT","inputs":[],"outputs":[{"name":"","type":"uint8","internalType":"uint8"}],"stateMutability":"view"},{"type":"function","name":"PHASE_WFC_OBSERVE","inputs":[],"outputs":[{"name":"","type":"uint8","internalType":"uint8"}],"stateMutability":"view"},{"type":"function","name":"PHASE_WFC_PROPAGATE","inputs":[],"outputs":[{"name":"","type":"uint8","internalType":"uint8"}],"stateMutability":"view"},{"type":"function","name":"STATUS_CONTRADICTION","inputs":[],"outputs":[{"name":"","type":"uint8","internalType":"uint8"}],"stateMutability":"view"},{"type":"function","name":"STATUS_EXHAUSTED","inputs":[],"outputs":[{"name":"","type":"uint8","internalType":"uint8"}],"stateMutability":"view"},{"type":"function","name":"STATUS_OK","inputs":[],"outputs":[{"name":"","type":"uint8","internalType":"uint8"}],"stateMutability":"view"},{"type":"function","name":"SVG_CLOSEOUT_RESERVE_TICKS","inputs":[],"outputs":[{"name":"","type":"uint64","internalType":"uint64"}],"stateMutability":"view"},{"type":"function","name":"preview","inputs":[{"name":"accountAddress","type":"uint256","internalType":"uint256"},{"name":"index","type":"uint64","internalType":"uint64"},{"name":"text","type":"string","internalType":"string"}],"outputs":[{"name":"","type":"string","internalType":"string"}],"stateMutability":"pure"},{"type":"function","name":"previewMetrics","inputs":[{"name":"accountAddress","type":"uint256","internalType":"uint256"},{"name":"index","type":"uint64","internalType":"uint64"},{"name":"text","type":"string","internalType":"string"},{"name":"maxTicks","type":"uint64","internalType":"uint64"}],"outputs":[{"name":"ticksUsed","type":"uint64","internalType":"uint64"},{"name":"phase","type":"uint8","internalType":"uint8"},{"name":"gridSize","type":"uint32","internalType":"uint32"},{"name":"patternCount","type":"uint32","internalType":"uint32"},{"name":"frameCount","type":"uint32","internalType":"uint32"},{"name":"contradictionCell","type":"uint32","internalType":"uint32"},{"name":"status","type":"uint8","internalType":"uint8"}],"stateMutability":"pure"},{"type":"function","name":"previewWithFuel","inputs":[{"name":"accountAddress","type":"uint256","internalType":"uint256"},{"name":"index","type":"uint64","internalType":"uint64"},{"name":"text","type":"string","internalType":"string"},{"name":"maxTicks","type":"uint64","internalType":"uint64"}],"outputs":[{"name":"svg","type":"string","internalType":"string"},{"name":"ticksUsed","type":"uint64","internalType":"uint64"},{"name":"status","type":"uint8","internalType":"uint8"},{"name":"phase","type":"uint8","internalType":"uint8"}],"stateMutability":"pure"}],"bytecode":{"object":"0x60808060405234601557614b4b908161001a8239f35b5f80fdfe6106006040526004361015610012575f80fd5b5f3560e01c806316ff6c7514610354578063194f325914610336578063197093a91461031b57806334cecf371461031657806345c1f893146102fb57806346636608146102e0578063487c5f441461027f5780636469c46f1461026357806372b7e28214610248578063827cd1361461022d5780638502e182146102115780639dbc995d146101f6578063a176c8bf146100eb578063da86e68014610190578063e0a1fce214610170578063e92addb814610175578063eaa52d8814610170578063eb152ae1146100f05763ec6a3429146100eb575f80fd5b6103f6565b3461016c57606036600319011261016c576024356001600160401b038116810361016c576044356001600160401b03811161016c576101689161014461013d61014d93369060040161036f565b369161050c565b90600435610542565b50505050505050604051918291602083526020830190610411565b0390f35b5f80fd5b610435565b3461016c575f36600319011261016c57602060405160038152f35b3461016c576101df60ff806101ba6101b46101aa3661039c565b949190369161050c565b916110aa565b5050505091939294906001600160401b03604051978897608089526080890190610411565b951660208701521660408501521660608301520390f35b3461016c575f36600319011261016c57602060405160068152f35b3461016c575f36600319011261016c5760206040516175308152f35b3461016c575f36600319011261016c57602060405160058152f35b3461016c575f36600319011261016c57602060405160078152f35b3461016c575f36600319011261016c5760206040516113888152f35b3461016c5760e063ffffffff60ff808280806102a06101b46101aa3661039c565b98959c939096506001600160401b0360409b92959b519d168d521660208c01521660408a01521660608801521660808601521660a08401521660c0820152f35b3461016c575f36600319011261016c57602060405160098152f35b3461016c575f36600319011261016c57602060405160048152f35b610354565b3461016c575f36600319011261016c57602060405160088152f35b3461016c575f36600319011261016c57602060405163ffffffff8152f35b3461016c575f36600319011261016c57602060405160028152f35b9181601f8401121561016c578235916001600160401b03831161016c576020838186019501011161016c57565b608060031982011261016c57600435916024356001600160401b038116810361016c5791604435906001600160401b03821161016c576103de9160040161036f565b90916064356001600160401b038116810361016c5790565b3461016c575f36600319011261016c57602060405160018152f35b805180835260209291819084018484015e5f828201840152601f01601f1916010190565b3461016c575f36600319011261016c5760206040515f8152f35b608081019081106001600160401b0382111761046a57604052565b634e487b7160e01b5f52604160045260245ffd5b60e081019081106001600160401b0382111761046a57604052565b61010081019081106001600160401b0382111761046a57604052565b602081019081106001600160401b0382111761046a57604052565b90601f801991011681019081106001600160401b0382111761046a57604052565b6001600160401b03811161046a57601f01601f191660200190565b929192610518826104f1565b9161052660405193846104d0565b82948184528183011161016c578281602093845f960137010152565b610589606061054f6119c3565b5060405160805261056160805161044f565b5f60805152617530602060805101525f6040608051015260805101935f855260805190611a3e565b936105948551611ac8565b9263ffffffff84169260406080510151611095576001600160781b03916001600160401b0383836001600160801b036105d69560801c91161816911690611abb565b16925f935b8651851015611087576105ef6080516138ac565b1561064657608381029080820460831490151715610632576001600160781b0361062960019261061f888b611a19565b5160f81c90611abb565b169401936105db565b634e487b7160e01b5f52601160045260245ffd5b9093509491949390935b6040608051015161104d57600182526040516101e0526106726101e05161047e565b60606101e05152606060206101e05101526120009060405161069483826104d0565b8236823760406101e05101525f60606101e05101525f60806101e05101525f60a06101e05101525f60c06101e05101526106cc613ad2565b965f935f610160526020610160526040516106ea61016051826104d0565b5f8152601f1961016051013661016051830137965f975b875189101561103e576107156080516138f1565b156108db576001600160f81b031961072d8a8a611a19565b511690600560f91b821461089257600160fd1b821461077c576107739161076d916040519161016051830152600182526107686021836104d0565b613b56565b98613a25565b985b9897610701565b99949290508896989a979a959391955b8b5181101561087c576107a06080516138f1565b1561087c57600160fd1b6001600160f81b03196107bd838f611a19565b5116036107d2576107cd90613a25565b61078c565b9890929499966107ea909b989b969294965b8a611aae565b968b815115155f146108625790610805836108169493611db0565b52610810818d611db0565b50613a25565b958015610839575f1981019081116106325761083190614615565b975b98610775565b5060405161084a61016051826104d0565b5f8152601f1961016051013661016051830137610831565b506108706108769298614615565b90613b56565b97610833565b9890929499966107ea909b989b969294966107e4565b8791506108a36108ae93988d611db0565b52610810818c611db0565b946108336040516108c261016051826104d0565b5f8152601f196101605101366101605183013798613a25565b909397509791949093975b805161101e575b506108f781613b0d565b985f5b828110610ff3575050505f60a0525f5b8851811015610fe657604060805101516109505760019060a05161092e828c611db0565b51511161093c575b0161090a565b610946818b611db0565b515160a052610936565b50969493929190955b61096e6353414d5063ffffffff871618613b96565b6101805263ffffffff6101c08181526101e080516040908101516104000193909352905190518201516101400152516101a08190526109ae9082906104d0565b366101a0513760016104006101a051015260016101406101a05101525f955b8551871015610fdc5760406080510151610b25576109eb8787611db0565b51610200525f5b6102005151811015610b1457610a096080516138ac565b15610af95780610a1e60019261020051611a19565b5160f81c610a2f816101a051611dc4565b5115610a3d575b50016109f2565b82610a4b826101a051611dc4565b526101605181148015610aef575b15610a7d576101c0516101e051604001519091610a7591611dc4565b525b5f610a36565b610ae2610ad460ff610a9161018051614643565b1660ff610aa061018051614643565b1660ff610aaf61018051614643565b169163ff00000062ff000061ff0060ff9560081b169360101b169160181b1617171790565b9160406101e0510151611dc4565b906101c051169052610a77565b50600a8114610a59565b5091939560019097919395975b0195939196949290966109cd565b509193956001909791939597610b06565b94939695505b610b38845160a051611d9d565b610b52610b4482611dd6565b60405160e05260e0516104d0565b8060e05152610b63601f1991611dd6565b01366101605160e05101375f945b8451861015610fcf5760406080510151610c2257610b8f8686611db0565b51965f5b8851811015610c1057610ba76080516138f1565b15610bf457808860ff610bea610be284610bdd8f610bca600199610bd392611a19565b5160f81c611ded565b9560a05190611d9d565b611abb565b60e051611db0565b9116905201610b93565b509295600191949750979194975b019491959296939096610b71565b50929560019194975097919497610c02565b94509492959190955b60a05160a05160011b0460021460a0511517156106325760a05160011b60606101e0510152518060011b908082046002149015171561063257610c8881610c8d9260806101e09a99989796959a51015260606101e0510151611d9d565b611dff565b60206101e0510152610c9d611e27565b6101005261082060405161012052610cb881610120516104d0565b60406101205152601f190136610160516101205101375f60c0525f610140525b60806101e0510151610140511015610fc55760406080510151610e28575f5b60606101e0510151811015610e1d57610d116080516138f1565b15610e015760ff610d34610be28360011c610bdd60a0516101405160011c611d9d565b51169081610dd257600191505f5b610d568160c0516101205161010051613bbc565b929192610d96575b505061ffff610d8c60206101e0510151610d8685610bdd60606101e051015161014051611d9d565b90611db0565b9116905201610cf7565b610da1608051613915565b5060c0526101c0511615610db7575b5f80610d5e565b8260a06101e051015261ffff811660c06101e0510152610db0565b6101e05160400151915f190160ff811161063257610dfa60019360ff6101c051931690611dc4565b5116610d42565b5090919293945b60016101405101610140529493929190610cd8565b509091929394610e08565b90919293945b610e3960c051611e68565b6101e051525f5b60c0518110610f93575060406080510151610f585760028552610ea060206101e051015160606101e05101519060806101e051015161ffff6101e05151511660a06101e05101511515916080519461ffff60c06101e05101511694611ee6565b91606083016101c0518151169560406080510151610f1d5790610ef7949392916101e051518551956040610160518201519101519060805197635746433063ffffffff6356495330818a16189816189551936125aa565b959195939093610520519496909496909660ff6001600160401b03608051511697511694565b505050610f33915060ff85969395511690611b01565b9160ff6001600160401b0360805151169551169294936001939291905f906101c05190565b90508394925060ff610f6d9294511690611b01565b9060ff6001600160401b03608051511694511691939260019291905f905f906101c05190565b80610fbe81610fa760019461010051611db0565b516101e0515190610fb88383611db0565b52611db0565b5001610e40565b9091929394610e2e565b9450949295919095610c2b565b9493969550610b2b565b5096949392919095610959565b808b61100c8261100560019587611db0565b5192611db0565b52611017818d611db0565b50016108fa565b906110389161102d828c611db0565b52610810818b611db0565b5f6108ed565b909397509791949093976108e6565b509391506110609060ff85511690611b01565b9060ff6001600160401b03608051511694511691939260019291905f905f9063ffffffff90565b909350949194939093610650565b5050929361106091925060ff85511690611b01565b9091926110fc906001600160401b036060916110c46119c3565b506040516080526110d660805161044f565b5f6080515216602060805101525f6040608051015260805101935f855260805190611a3e565b936111078551611ac8565b9263ffffffff84169260406080510151611095576001600160781b03916001600160401b0383836001600160801b036111499560801c91161816911690611abb565b16925f935b86518510156119b5576111626080516138ac565b1561119b57608381029080820460831490151715610632576001600160781b0361119260019261061f888b611a19565b1694019361114e565b9093509491949390935b6040608051015161104d57600182526040516101e0526111c76101e05161047e565b60606101e05152606060206101e0510152612000906040516111e983826104d0565b8236823760406101e05101525f60606101e05101525f60806101e05101525f60a06101e05101525f60c06101e0510152611221613ad2565b965f935f6101605260206101605260405161123f61016051826104d0565b5f8152601f1961016051013661016051830137965f975b87518910156119a65761126a6080516138f1565b156113e9576001600160f81b03196112828a8a611a19565b511690600560f91b82146113c457600160fd1b82146112c6576112bd9161076d916040519161016051830152600182526107686021836104d0565b985b9897611256565b99949290508896989a979a959391955b8b518110156113ae576112ea6080516138f1565b156113ae57600160fd1b6001600160f81b0319611307838f611a19565b51160361131c5761131790613a25565b6112d6565b989092949996611333909b989b969294968a611aae565b968b815115155f1461139a57906108058361134e9493611db0565b958015611371575f1981019081116106325761136990614615565b975b986112bf565b5060405161138261016051826104d0565b5f8152601f1961016051013661016051830137611369565b506108706113a89298614615565b9761136b565b989092949996611333909b989b969294966107e4565b8791506108a36113d593988d611db0565b9461136b6040516108c261016051826104d0565b909397509791949093975b8051611991575b5061140581613b0d565b985f5b82811061196d575050505f60a0525f5b8851811015611960576040608051015161145e5760019060a05161143c828c611db0565b51511161144a575b01611418565b611454818b611db0565b515160a052611444565b50969493929190955b61147c6353414d5063ffffffff871618613b96565b6101805263ffffffff6101c08181526101e080516040908101516104000193909352905190518201516101400152516101a08190526114bc9082906104d0565b366101a0513760016104006101a051015260016101406101a05101525f955b855187101561195657604060805101516115e2576114f98787611db0565b51610200525f5b61020051518110156115d1576115176080516138ac565b156115b6578061152c60019261020051611a19565b5160f81c61153d816101a051611dc4565b511561154b575b5001611500565b82611559826101a051611dc4565b5261016051811480156115ac575b1561158b576101c0516101e05160400151909161158391611dc4565b525b5f611544565b61159f610ad460ff610a9161018051614643565b906101c051169052611585565b50600a8114611567565b5091939560019097919395975b0195939196949290966114db565b5091939560019097919395976115c3565b94939695505b6115f5845160a051611d9d565b611601610b4482611dd6565b8060e05152611612601f1991611dd6565b01366101605160e05101375f945b845186101561194957604060805101516116b15761163e8686611db0565b51965f5b885181101561169f576116566080516138f1565b1561168357808860ff611679610be284610bdd8f610bca600199610bd392611a19565b9116905201611642565b509295600191949750979194975b019491959296939096611620565b50929560019194975097919497611691565b94509492959190955b60a05160a05160011b0460021460a0511517156106325760a05160011b60606101e0510152518060011b908082046002149015171561063257610c88816117179260806101e09a99989796959a51015260606101e0510151611d9d565b60206101e0510152611727611e27565b610100526108206040516101205261174281610120516104d0565b60406101205152601f190136610160516101205101375f60c0525f610140525b60806101e051015161014051101561193f57604060805101516118ac575f5b60606101e05101518110156118a15761179b6080516138f1565b156118855760ff6117be610be28360011c610bdd60a0516101405160011c611d9d565b5116908161185657600191505f5b6117e08160c0516101205161010051613bbc565b92919261181a575b505061ffff61181060206101e0510151610d8685610bdd60606101e051015161014051611d9d565b9116905201611781565b611825608051613915565b5060c0526101c051161561183b575b5f806117e8565b8260a06101e051015261ffff811660c06101e0510152611834565b6101e05160400151915f190160ff81116106325761187e60019360ff6101c051931690611dc4565b51166117cc565b5090919293945b60016101405101610140529493929190611762565b50909192939461188c565b90919293945b6118bd60c051611e68565b6101e051525f5b60c0518110611924575060406080510151610f585760028552610ea060206101e051015160606101e05101519060806101e051015161ffff6101e05151511660a06101e05101511515916080519461ffff60c06101e05101511694611ee6565b8061193881610fa760019461010051611db0565b50016118c4565b90919293946118b2565b94509492959190956116ba565b94939695506115e8565b5096949392919095611467565b808b61197f8261100560019587611db0565b5261198a818d611db0565b5001611408565b906119a09161102d828c611db0565b5f6113fb565b909397509791949093976113f4565b9093509491949390936111a5565b604051906119d08261044f565b5f6060838281528260208201528260408201520152565b906119f1826104f1565b6119fe60405191826104d0565b8281528092611a0f601f19916104f1565b0190602036910137565b908151811015611a2a570160200190565b634e487b7160e01b5f52603260045260245ffd5b80519192916017811115611aa9575060175b611a59816119e7565b935f5b828110611a695750505050565b611a72826138f1565b15611aa2576001906001600160f81b0319611a8d8287611a19565b51165f1a611a9b8289611a19565b5301611a5c565b8552505050565b611a50565b9190820391821161063257565b9190820180921161063257565b60058111611ade57600181018091116106325790565b600419810190811161063257611af39061395d565b600501806005116106325790565b600d6050611d66926101566020611b1b60ff829816613a33565b926040519788947f3c73766720786d6c6e733d22687474703a2f2f7777772e77332e6f72672f3230828701527f30302f737667222077696474683d223130302522206865696768743d2231303060408701527f25222076696577426f783d22302030203130203130223e00000000000000000060608701527f3c726563742077696474683d223130302522206865696768743d223130302522607787015270103334b6361e911198309830983091179f60791b60978701527f3c7465787420783d22312220793d22322220666f6e742d66616d696c793d226d60a88701527f6f6e6f73706163652220666f6e742d73697a653d22302e36222066696c6c3d2260c88701527f23666666666666223e6675656c206578686175737465643c2f746578743e000060e88701527f3c7465787420783d22312220793d22332220666f6e742d66616d696c793d226d6101068701527f6f6e6f73706163652220666f6e742d73697a653d22302e34222066696c6c3d226101268701526f011b33333333333111f383430b9b29d160851b6101468701528051918291018587015e840190661e17ba32bc3a1f60c91b848301527f3c7465787420783d22312220793d22342220666f6e742d66616d696c793d226d61015d8301527f6f6e6f73706163652220666f6e742d73697a653d22302e34222066696c6c3d2261017d8301526811b33333333333111f60b91b61019d8301528051928391016101a683015e0101661e17ba32bc3a1f60c91b83820152651e17b9bb339f60d11b605782015203016012198101845201826104d0565b90565b8115611d73570690565b634e487b7160e01b5f52601260045260245ffd5b908160021b918083046004149015171561063257565b8181029291811591840414171561063257565b8051821015611a2a5760209160051b010190565b90610100811015611a2a5760051b0190565b6001600160401b03811161046a5760051b60200190565b60ff60019116019060ff821161063257565b90611e0982611dd6565b611e1660405191826104d0565b8281528092611a0f601f1991611dd6565b6040516108209190611e3983826104d0565b6040815291601f1901825f5b828110611e5157505050565b602090611e5c6119c3565b82828501015201611e45565b90611e7282611dd6565b611e7f60405191826104d0565b8281528092611e90601f1991611dd6565b01905f5b828110611ea057505050565b602090611eab6119c3565b82828501015201611e94565b8115611d73570490565b906020811015611a2a5760051b0190565b61ffff60019116019061ffff821161063257565b60405197965f96949591949290611efc8a61044f565b60608a5260208a019960608b52604081019a60608c5260608201905f8252829c6002861080156124f0575b6124945750506040519891506202002090506001600160401b03611000611f4e838c6104d0565b808b521161046a57601f19013660208a0137618020926040516105e052611f78846105e0516104d0565b6104006105e05152601f198401803660206105e0510137611f9c60405195866104d0565b61040085523660208601375f975f5b88811061218f575b5050505050505050508060021b818104600414821517156106325791611fd883611dff565b8652611ff3611fe683611dff565b9360208801948552611dff565b92604087019384528260608801525f915b8383106120b957505050825b81811061201d5750505050565b835b600481106120305750600101612010565b84855b848110612082575084518360021b8481046004148515171561206e57612064849392610d8660019661ffff94611abb565b911690520161201f565b634e487b7160e01b88526011600452602488fd5b6120988951858361209287613e61565b92613e8b565b6120a5575b600101612033565b906120b1600191611ed2565b91905061209d565b90919461ffff6120cc876105e051611db0565b51166120d9878551611db0565b528560021b908682046004148715171561217b578061217b575061ffff6121008284611db0565b511695885196612111835f99611db0565b52600182018083116106325761213761ffff61212d8387611db0565b5116918b51611db0565b52600282018083116106325761215361ffff61212d8387611db0565b5260038201809211610632578161217261ffff61212d60019587611db0565b52019190612004565b634e487b7160e01b81526011600452602490fd5b604085015161248f575f5b8381106121ab575b50600101611fab565b6121b4866138f1565b1561248a5761ffff6121e66121e08c610bdd886121db6121d48289611d69565b9389611d69565b611d9d565b85611db0565b5116600182018083116106325761ffff61221b6122158e610bdd8a6121db61220e8289611d69565b938b611d69565b87611db0565b51166122278785611d69565b916001860190818711610632578c8f918f92808c8c8a998261224a8b968b611d69565b9061225491611d9d565b9061225e91611abb565b61226791611db0565b5161ffff169687948261227991611d69565b9261228391611d69565b9061228d91611d9d565b9061229791611abb565b6122a1908c611db0565b5161ffff16966122b2948894613c96565b61247e5761040093846040516122c882826104d0565b3690376040519485018581106001600160401b0382111761046a576040528085528260208601528160408601528360608601528260808601528060a08601528360c08601528160e08601528261010086015283610120860152806101408601528161016086015283610180860152826101a0860152816101c0860152806101e08601528361020086015281610220860152826102408601528061026086015281610280860152836102a0860152806102c0860152826102e0860152816103008601528061032086015283610340860152826103608601526103808501526103a08401526103c08301526103e08201525f905b600882106123cf575b50506001905b0161219a565b909b6123da886138f1565b15612478578c60021b908d808304600414901517156106325761ffff6124008385611ec1565b511690600183018311610632578f9261ffff61241f6001830187611ec1565b511693600282018083116106325761243a61ffff9188611ec1565b511660038301831161063257600195612470958f958f968f96612463600361ffff92018d611ec1565b5116956105e05190613cf8565b9c01906123ba565b9b6123c3565b505050506001906123c9565b6121a2565b611fb3565b975097509750989950505050505f809450506020916040516124b684826104d0565b858152853681378652604051906124cd84836104d0565b8582528536813752604051916124e381846104d0565b8483525083368137525290565b5060028910611f27565b9063ffffffff8091169116029063ffffffff821691820361063257565b63ffffffff16612710039063ffffffff821161063257565b9063ffffffff8091169116019063ffffffff821161063257565b6001600160401b031661138801906001600160401b03821161063257565b906001600160401b03809116911601906001600160401b03821161063257565b906001600160401b03809116911602906001600160401b03821691820361063257565b936125ea9692989361260a9a9598969298610480526104a0526104c052610420526104e05261050052610540525f6105205263ffffffff61052052613b96565b61260f6125fb826103e86064613ffb565b916103e8958691826064613ffb565b614066565b5f61024052607d610520518216105f146138a057610240525b61271080850290810485036106325761052051908590041693620f424081900460011b63fffffffe8116906401fffffffe1681036106325761266990612517565b9461052051610420511680155f610560525f1461389057505f610560525b5f6103e081905261052051610560511615600117156106325782610520519104166103e052637fffffff6103e05160011c16955f610320526103e05161052051610560511603610320526105205161032051116106325786637fffffff6126f98361270284846126f961270b98612517565b60011c1661252f565b6103a052612517565b6103c0525f610360528082029080159082048314171561063257610520516127109182900416610360819052808202929183040361063257637fffffff916127599161052051910416612517565b60011c1661040052610420516001600160401b03906127789080611d9d565b1660406105405101511580159061387d575b613859575f610460525f610440525f6102e0525f936040516127ab81610499565b606081526060602082015260606040820152606080820152606060808201525f60a08201525f60c08201525f60e0820152506104c051155f1461344d57505060056001600160401b036128ba60206040519061280781836104d0565b5f82525f368137612821610c886104205161042051611d9d565b60405161282e83826104d0565b5f81525f3681376040519161284384846104d0565b5f83525f3681376040519361285881866104d0565b5f85525f3681376040519561286c87610499565b86528501526040840152606083015260808201525f60a08201525f60c08201525f60e0820152956104205161343d575b60016102e0525b600760606105405101526104c0516104205161449f565b16016001600160401b038111610632576128d66128df91612549565b610540516140ca565b15613422576020610300819052604051906128fa90826104d0565b5f8152601f19610300510136610300518301376102a0526129216103e0516103205161252f565b60406102c052925f5b610420518110613058575b50505050506040610540510151612ea7576016601e612c5e9260609061046051612eed575b506003603461297163ffffffff6104005116614506565b600861297b614598565b600161298961036051614506565b60f561299d63ffffffff6103a05116614506565b9360336129b263ffffffff6103c05116614506565b976102c0515161028052721e39bb33903230ba3096aa2427aaa3a42a1e9160691b610300516102805101526105005151806103005161050051018461028051015e61028051017f222077696474683d223130302522206865696768743d22313030252220766965838201527f77426f783d22302030203130203130222070726573657276654173706563745260538201527f6174696f3d22784d6964594d6964206d6565742220786d6c6e733d226874747060738201527f3a2f2f7777772e77332e6f72672f323030302f737667223e0a0a202020203c7260938201527f6563742069643d226261636b67726f756e6422207769647468203d202231303060b38201527f252220686569676874203d202231303025222066696c6c203d2022233030303060d38201527f3030666622202f3e0a0a202020203c672069643d226d61696e2d61726561222060f3820152740e8e4c2dce6ccdee4da7a44e8e4c2dce6d8c2e8ca5605b1b61011382015281518092610300510161012883015e0101600160fd1b8382015281518092610300510160f683015e01016705240e6c6c2d8ca560c31b83820152815180926103005101600983015e01017f29223e0a20202020202020203c672069643d22497465726174696f6e7322207483820152730e4c2dce6ccdee4da7a44e8e4c2dce6d8c2e8ca560631b6028820152815180926103005101603c83015e01016201016160ed1b83820152815180926103005101603783015e01017f292022207374796c653d2269736f6c6174696f6e3a69736f6c617465223e0000828201526102a051519081610300516102a05101602183015e0101828101915f835280519283916103005101905e0101750510101010101010101e17b39f05101010101e17b39f60511b81526102805190036009198101610280515201610280516104d0565b6040610540510151612ed65760086060610540510152612c8161050051516119e7565b5f5b6105005151811015612ed057612c9b610540516138ac565b15612cf357600190600560f91b60ff60f81b612cba8361050051611a19565b511603612cda57600160fd1b5b5f1a612cd38285611a19565b5301612c83565b60ff60f81b612cec8261050051611a19565b5116612cc7565b81525b612e1060076013612d056145c4565b6025612d0f6145df565b956005612d1a6145fb565b600a6102c05151998a96610280515180610300516102805101610300518b015e88019069051e3a32bc3a103c1e9160b11b61030051830152805180916103005101602a84015e610300519101016411103c9e9160d91b83820152815180926103005101600f83015e01017f2220666f6e742d66616d696c793d226d6f6e6f73706163652220666f6e742d73838201526434bd329e9160d91b85820152815180926103005101602a83015e01017211103334b6361e9111b333333333333333111f60691b83820152815180926103005101603883015e0101661e17ba32bc3a1f60c91b8382015203016018198101845201826104d0565b6040610540510151612ea75760096060610540510152612e3261054051613939565b50612e7960086102c05151928051809161030051016103005186015e83016705051e17b9bb339f60c11b6103005182015283610300519103016017198101845201826104d0565b63ffffffff6102e0511690610460515f14612ea25763ffffffff61044051166105205260029092565b5f9092565b50612ebf60ff60606105405101511661050051611b01565b905f9063ffffffff61052052600190565b50612cf6565b612ebf60ff60606105405101511661050051611b01565b90506130526022600a612f5b63ffffffff612f5481612f4d612f156104205161044051611d69565b98612f3d83612f4283612f3d83612f326104205161044051611eb7565b9f16610560516124fa565b61252f565b9b16610560516124fa565b9716614506565b9516614506565b936009612f7063ffffffff6103205116614506565b6005612f8463ffffffff6103205116614506565b91602a6102c05151998a9669051e3932b1ba103c1e9160b11b61030051890152805180916103005101848a015e87016411103c9e9160d91b83820152815180926103005101602f83015e01016811103bb4b23a341e9160b91b83820152815180926103005101600e83015e01016911103432b4b3b43a1e9160b11b83820152815180926103005101601383015e01017f222066696c6c3d222330303030303022206f7061636974793d22312e303030228382015261179f60f11b602a820152030160028101845201826104d0565b5f61295a565b604061054051015161341d575f610260525b610420516102605110613080575b60010161292a565b61308c610540516138f1565b1561341857856130b1610540518361026051610420516104c051888b61048051614898565b868561310163ffffffff6130fa81612f5460ff826130d760608b0198838a5116906124fa565b160498612f3d6130f082612f3d8661026051168c6124fa565b98848d16906124fa565b9316614506565b9161311463ffffffff6103205116614506565b9461312763ffffffff6103205116614506565b926102c051519561313b6102c051886104d0565b60098752601f196102c051013661030051890137865115611a2a5760236103005188015361316f600f825160041c16614b09565b5f1a875160011015611a2a57602188015361318d600f825116614b09565b5f1a875160021015611a2a5760228801536103005181016131b4600f825160041c16614b09565b5f1a885160031015611a2a576131d391600f9160238b01535116614b09565b5f1a875160041015611a2a5760248801536102c051016131f9600f825160041c16614b09565b5f1a875160051015611a2a5761321891600f9160258a01535116614b09565b5f1a865160061015611a2a576026870153613239600f825160041c16614b09565b5f1a865160071015611a2a5761325891600f9160278901535116614b09565b5f1a93855160081015611a2a57600a866009600b9660056134009b8561329063ffffffff60089a60039f9e60239f6028015316614506565b976132a363ffffffff6102405116614506565b9a6102c05151610220526102a0515180610300516102a051016103005161022051015e61022051019069051e3932b1ba103c1e9160b11b61030051830152805180916103005101602a84015e610300519101016411103c9e9160d91b83820152815180926103005101600f83015e01016811103bb4b23a341e9160b91b83820152815180926103005101600e83015e01016911103432b4b3b43a1e9160b11b83820152815180926103005101601383015e01016711103334b6361e9160c11b83820152815180926103005101601283015e01016a111037b830b1b4ba3c9e9160a91b83820152815180926103005101601383015e01017f22207374726f6b653d2223306630663066666622207374726f6b652d776964748382015262341e9160e91b602b820152815180926103005101602e83015e01016211179f60e91b8282015261022051900301601c198101610220515201610220516104d0565b610220516102a052600161026051016102605261306a565b613078565b612935565b50505050612ebf60ff60606105405101511661050051611b01565b6001610460525f6104405261289c565b9093506003606061054051015260018060fe1b036104c051166104c05103610632576134966128d66001600160401b036134906104c0516104c05160021b611d9d565b16612549565b1561374e576134b5610c886104c0516121db6104205161042051611d9d565b6134c8610c886104205161042051611d9d565b610380526134e36104c0516121db6104205161042051611d9d565b8060021b9080820460041490151715610632576134ff90611dff565b613519610c886104c0516121db6104205161042051611d9d565b90613534610c886104c0516121db6104205161042051611d9d565b926040516103405261354861034051610499565b61034051526103805160206103405101526040610340510152606061034051015260806103405101525f60a06103405101525f60c06103405101525f60e061034051015260056001600160401b036135b4610340519660046060610540510152826104c0511690612587565b16026001600160401b038116908103610632576128d66135d391612549565b1561374e576135e86104205161042051611d9d565b5f5b81811061376a575b5050604061054051015161374e5761360c6104e051613b96565b905b600560606105405101526136326105405183610420516104c05185610340516140ed565b60406105405101516137305760ff169182159283908415613725575b5080156136c2575b6104605115806136b2575b61369b575b60016102e05101806102e05111610632576102e05261368657915061360e565b50506001600160401b036128ba6005926128a3565b60016104605260e061034051015161044052613666565b5060c06103405101511515613661565b600660606105405101526136e561054051610420516104c0518961034051614305565b60406105405101516137065760c06103405101511561365657506001613656565b5050505050505050612ebf60ff60606105405101511661050051611b01565b60029150145f61364e565b50505050505050612ebf60ff60606105405101511661050051611b01565b5050505050612ebf60ff60606105405101511661050051611b01565b6040610540510151613854575f5b6104c05181106137a7575b5060019061ffff6104c051166137a0826020610340510151611db0565b52016135ea565b6137b3610540516138f1565b1561384f5760016137d36103405151610d8684610bdd6104c05188611d9d565b525f5b600481106137e8575b50600101613778565b6137f4610540516138f1565b1561384a578160021b90828204600414831517156106325761ffff61382761381e83600195611abb565b6104a051611db0565b51166138436040610340510151610d866104c05185888a6146b4565b52016137d6565b6137df565b613783565b6135f2565b505050505061387560ff60606105405101511661050051611b01565b905f90600190565b5061388a6105405161409e565b1561278a565b6105205187160461056052612687565b50607d61024052612628565b604081019081516138eb576001600160401b036020816138d0600282865116612567565b1692838152015116106138e35750600190565b600190525f90565b50505f90565b604081019081516138eb576001600160401b036020816138d0600182865116612567565b604081019081516138eb576001600160401b036020816138d0600582865116612567565b604081019081516138eb576001600160401b036020816138d0600a82865116612567565b908115613a2057905f80825b808211156139b4575b50506001810191828211610632576139a66139966139908480611d9d565b83611aae565b916139a18580611d9d565b611aae565b116139af575090565b905090565b909392916139c28286611abb565b60011c946139d08680611d9d565b848114613a19578411156139f657505060018401808511610632575b9093919293613969565b9150938015613a10575f19810190811161063257906139ec565b93919293613972565b5050505050565b5f9150565b5f1981146106325760010190565b8015613ab257805f81805b613a9a5750613a4c816119e7565b925b613a5757505090565b5f198101908111610632578091600a8106603001918260301161063257600a9260f81b6001600160f81b0319165f1a90613a919086611a19565b53049081613a4e565b9150613aa7600a91613a25565b910480839291613a3e565b50604051613ac16040826104d0565b60018152600360fc1b602082015290565b6040516103209190613ae483826104d0565b6018815291601f1901825f5b828110613afc57505050565b806060602080938501015201613af0565b90613b1782611dd6565b613b2460405191826104d0565b8281528092613b35601f1991611dd6565b01905f5b828110613b4557505050565b806060602080938501015201613b39565b613b94906020808095946040519684889551918291018487015e8401908282015f8152815193849201905e01015f815203601f1981018452836104d0565b565b5f604051613ba3816104b5565b5263ffffffff60405191613bb6836104b5565b16815290565b8294939291925f5b838110613c6257506040831015613c4957613be283613c3195611db0565b63ffffffff82169052613bf36119c3565b5060ff60405191613c038361044f565b818160181c168352818160101c166020840152818160081c166040840152166060820152610fb88383611db0565b5060018201918281116106325761ffff169190600190565b505050505f1982018281116106325761ffff1691905f90565b63ffffffff613c718287611db0565b511663ffffffff831614613c8757600101613bc4565b61ffff1695945f945092505050565b9492949391909315613cef5761ffff8094169384911614938415613ce1575b508315613cd3575b508215613cc957505090565b61ffff1614919050565b61ffff16821492505f613cbd565b61ffff16831493505f613cb5565b50505050505f90565b9697959392809991959361ffff169661ffff1680613d16818a611d9d565b9561ffff169586613d2691611abb565b90613d3091611d9d565b9561ffff169586613d4091611abb565b90613d4a91611d9d565b9861ffff169889613d5a91611abb565b925f5b828110613e045750610400821015613df757613d7b613d81936138ac565b50611db0565b528660021b938785046004148815171561063257613d9f8587611db0565b526001840180851161063257613db59086611db0565b526002830180841161063257613dcb9085611db0565b526003820180921161063257600193610fb88693613de895611db0565b52600181018091116106325790565b5050505050505050505090565b90915083613e128284611db0565b5114613e2357600101908a91613d5d565b9598505091505061ffff9450613e5a9350613e3e91506138ac565b50613e5483613e4d8387611db0565b5116611ed2565b93611db0565b9116905290565b8015613e855760018114613e7f57600214613e7b57600190565b5f90565b50600390565b50600290565b9291909161ffff613ea4613e9e85611d87565b86611db0565b511690613eb084611d87565b6001810180911161063257613ec861ffff9187611db0565b511694613ed485611d87565b600281018091116106325761ffff613eef613ef79284611db0565b511695611d87565b6003810180911161063257613f0f61ffff9183611db0565b51169161ffff613f27613f2187611d87565b84611db0565b511691613f3386611d87565b6001810180911161063257613f4b61ffff9183611db0565b511690613f5787611d87565b600281018091116106325761ffff613f72613f7a9284611db0565b511697611d87565b90600382018092116106325761ffff91613f9391611db0565b5116968215613fe85760018314613fd3575050600214613fc1575050149182613fbb57505090565b14919050565b929350939050149182613fbb57505090565b945095505092509350149182613fbb57505090565b97509450505050149182613fbb57505090565b909163ffffffff831663ffffffff83169381851161405757508361401e91611aae565b91821561405057509161404361404c9263ffffffff61403d8196614643565b16611d9d565b60201c90611abb565b1690565b9250505090565b9050611d669350919091613ffb565b9063ffffffff169081156138eb5763ffffffff166103e88102908082046103e814901517156106325763ffffffff9161404c91611eb7565b6113886001600160401b036140b283614688565b1611156140bf5750600190565b604060019101525f90565b906001600160401b03806140dd84614688565b9216911611156140bf5750600190565b9391926140fa9080611d9d565b9161ffff5f935f915f5b8281106142305750505015614226575f955f5b8581106141ce5750505f9580614160575b5050505f5b82811061413e57505050505060ff90565b80856001920361414f575b0161412d565b61415b848285886146fd565b614149565b614169916146df565b5f5f5b85811061417a575b50614128565b61418d8751610d8683610bdd8a8a611d9d565b5161419b575b60010161416c565b906141b59061ffff6141ad8487611db0565b511690611abb565b908183101561419357939650505050925f808080614174565b6141d7826138f1565b15614219576141ef8751610d8683610bdd8a8a611d9d565b516141fd575b600101614117565b9661421160019161ffff6141ad8b88611db0565b9790506141f5565b5050505050505050600190565b5050505050505f90565b6142398a6138f1565b156142e25761ffff61424f8260208c0151611db0565b511680156142b35760018111614269575b50600101614104565b61ffff831680821090811561428f575b5015614260579096506001935090508583614260565b905081148061429f575b5f614279565b506001806142ac88614643565b1614614299565b5098505050505050505060c08101908151156142d2575b505050600290565b600160e0925201525f80806142ca565b50505050505050505050600190565b61ffff5f199116019061ffff821161063257565b91909392935b60a083018051156144975761431f856138f1565b156144975780515f1981019081116106325761435d63ffffffff61434d8361ffff9486526060890151611db0565b5116926080870151905190611db0565b51166143738761436d8185611d69565b93611eb7565b915f5b60048110614387575050505061430b565b6143a789610bdd61439f8483899e97989a9989614802565b929092611d9d565b6143b082613e61565b5f5b8881106143ca57505050600101979293919097614376565b6143d38b6138f1565b15614481576143f06143e982610bdd8c87611d9d565b8b51611db0565b511561448f5761440284828a8a613e8b565b614411575b6001905b016143b2565b61441d898383866146b4565b60408b019061ffff614430828451611db0565b511680614440575b505050614407565b61ffff91614450614457926142f1565b9351611db0565b91168091521561446a575b5f8080614438565b6144768982858d6146fd565b60c08a015115614462575b505050505050505050505050565b60019061440b565b505050505050565b6144b16001600160401b039180611d9d565b169182156144ff57156144cb5750611d6690600390612587565b600281901b906001600160fe1b03811603610632576003019081600311610632576001600160401b03611d66921690612587565b5050505f90565b6103e890818104906020611d669261452382956004940691613a33565b9061453060648204614aea565b9061454a600a6145438180850406614aea565b9206614aea565b906040519784899551918291018787015e840192601760f91b8685015260ff60f81b16602184015260ff60f81b16602283015260ff60f81b1660238201520301601b198101845201826104d0565b6020611d666004826145a95f613a33565b6145b25f614aea565b6145bb5f614aea565b61454a5f614aea565b6020611d666004826145d55f613a33565b6145b26008614aea565b6020611d666004826145f16009613a33565b6145b26005614aea565b6020611d6660048261460c5f613a33565b6145b283614aea565b9061461f826119e7565b915f5b81811061462d575050565b80602061463c60019387611a19565b5301614622565b63ffffffff8151166219660d8102908082046219660d149015171561063257633c6ef35f8101811161063257640100000000633c6ef35f63ffffffff92081680915290565b6001600160401b0360208183511692015116808210156138eb57036001600160401b0381116106325790565b6146c29293610bdd91611d9d565b908160021b918083046004149015171561063257611d6691611abb565b9080156138eb5763ffffffff6146f7611d6693614643565b16611d69565b91909261470e82610bdd8387611d9d565b614719818551611db0565b5115613a195761472b5f918551611db0565b525f5b600481106147e357505060608201519060a083019161475663ffffffff861691845190611db0565b5261476d61ffff6080850151921691835190611db0565b528051906001820180921161063257526020810161ffff61478f848351611db0565b51168061479d575b50505050565b6147ad8461445061ffff936142f1565b911680915215806147d7575b6147c5575b8080614797565b600160c082015260e001525f806147be565b5060c0810151156147b9565b6001905f6147fb6040870151610d868685898c6146b4565b520161472e565b9392801561487157600181146148595760021461483c578061482d57505f1981019081116106325790565b5f198101915081116106325790565b92906001820180921161063257811061485557505f9190565b9190565b509060018201809211610632578110611d6657505f90565b50928061488857505f198101908111610632579190565b5f19810191508111610632579190565b939295969491946148a76119c3565b505f965f965f6105c0525f6105e0525f995f5b6002811061495457505050505050505050811561492c576148dd8260ff92611eb7565b169160ff614909816148f2856105c051611eb7565b169382614902826105e051611eb7565b1693611eb7565b1691604051936149188561044f565b845260208401526040830152606082015290565b50505060405161493b8161044f565b5f81525f60208201525f604082015260ff606082015290565b5f5b6002811061496757506001016148ba565b80881015614ad8576149a0614980826139a18c8c611abb565b83851015614aca5761499a8b6121db866139a1838a611abb565b90611abb565b5f610580525b8561058051106149ba575b50600101614956565b6040870151614ac5576149d98551610d8661058051610bdd8a86611d9d565b516149ef575b60016105805101610580526149a6565b9c9a9b6149fb876138f1565b5060018101809111610632579b8260011b8381046002148415171561063257614a249083611abb565b906105805160021b906105805182046004146105805115171561063257614a648d61ffff614a5c8d610d86614abf98614a7798611abb565b511690611db0565b516105a05260ff6105a051511690611abb565b9b614a8f60ff60206105a0510151166105c051611abb565b6105c052614aaa60ff60406105a0510151166105e051611abb565b6105e05260ff60606105a05101511690611abb565b9c6149df565b6149b1565b61499a8b6121db8688611aae565b6149a0614ae5828a611aae565b614980565b600a9006603001806030116106325760f81b6001600160f81b03191690565b60ff16600a811015614b305760300160ff81116106325760f81b6001600160f81b03191690565b60570160ff81116106325760f81b6001600160f81b0319169056","linkReferences":{}},"methodIdentifiers":{"DEFAULT_MAX_TICKS()":"8502e182","NO_CONTRADICTION_CELL()":"194f3259","PHASE_FRAME_RENDER()":"72b7e282","PHASE_PALETTE()":"a176c8bf","PHASE_PATTERNS()":"34cecf37","PHASE_PROPAGATOR()":"e92addb8","PHASE_SEED()":"e0a1fce2","PHASE_SVG_FINALIZE()":"46636608","PHASE_TITLE_RENDER()":"197093a9","PHASE_WFC_INIT()":"45c1f893","PHASE_WFC_OBSERVE()":"827cd136","PHASE_WFC_PROPAGATE()":"9dbc995d","STATUS_CONTRADICTION()":"16ff6c75","STATUS_EXHAUSTED()":"ec6a3429","STATUS_OK()":"eaa52d88","SVG_CLOSEOUT_RESERVE_TICKS()":"6469c46f","preview(uint256,uint64,string)":"eb152ae1","previewMetrics(uint256,uint64,string,uint64)":"487c5f44","previewWithFuel(uint256,uint64,string,uint64)":"da86e680"},"id":1}