{"abi":[{"type":"function","name":"getSeed","inputs":[{"name":"accountAddress","type":"uint256","internalType":"uint256"},{"name":"index","type":"uint64","internalType":"uint64"},{"name":"text","type":"string","internalType":"string"}],"outputs":[{"name":"","type":"uint256","internalType":"uint256"}],"stateMutability":"pure"}],"bytecode":{"object":"0x60808060405234601557610198908161001a8239f35b5f80fdfe6080600436101561000e575f80fd5b5f3560e01c634966af6b14610021575f80fd5b34610187576060366003190112610187576004356024359067ffffffffffffffff8216809203610187576044359167ffffffffffffffff8311610187573660238401121561018757826004013567ffffffffffffffff811161018757366024828601011161018757601f8101601f19908116603f011685019267ffffffffffffffff841186851017610173575f6020836001600160781b039794602489966100f099604052828c5201838b0137880101526fffffffffffffffffffffffffffffffff8160801c9116181661018b565b165f905b825182101561016857608381029080820460831490151715610154578251821015610140576001600160781b036101376001926020858701015160f81c9061018b565b169101906100f4565b634e487b7160e01b5f52603260045260245ffd5b634e487b7160e01b5f52601160045260245ffd5b602090604051908152f35b634e487b7160e01b5f52604160045260245ffd5b5f80fd5b919082018092116101545756","linkReferences":{}},"methodIdentifiers":{"getSeed(uint256,uint64,string)":"4966af6b"},"id":0}